:020000040800F2
:10000000280500209D010008AF1D0008B91900084F
:10001000AD1D0008850600087122000800000000E0
:10002000000000000000000000000000B31D0008F8
:100030003907000800000000B11D0008B51D0008C8
:10004000B7010008B7010008B7010008B7010008B0
:10005000B7010008B7010008B7010008B7010008A0
:10006000B7010008B7010008B7010008B701000890
:10007000B7010008B7010008B7010008B701000880
:1000800089060008B7010008B7010008B701000899
:10009000B7010008B7010008B7010008B701000860
:1000A000B7010008B7010008B7010008B701000850
:1000B000B7010008B7010008B7010008B701000840
:1000C000B7010008B7010008B7010008B701000830
:1000D000B7010008B7010008B7010008B701000820
:1000E000B7010008B7010008B7010008B701000810
:1000F000B7010008B7010008B7010008B701000800
:10010000B7010008B7010008B7010008B7010008EF
:10011000B7010008B7010008B7010008B7010008DF
:10012000B7010008B7010008B7010008B7010008CF
:10013000B7010008B7010008B7010008B7010008BF
:10014000B7010008B7010008B7010008B7010008AF
:10015000B7010008B7010008B7010008B70100089F
:10016000B7010008B7010008B7010008B70100088F
:10017000B7010008B7010008B7010008000000003F
:10018000B7010008B7010008DFF80CD000F068FAEA
:1001900000480047B1220008280500200648804793
:1001A00006480047FEE7FEE7FEE7FEE7FEE7FEE75C
:1001B000FEE7FEE7FEE7FEE74D1E000889010008A6
:1001C0002DE9F05F0546002092469B46884606468C
:1001D000814640241BE0284641464746224600F01F
:1001E00089F953465A46C01A914110D31146184610
:1001F000224600F070F92D1A67EB01084F4622469F
:100200000120002100F067F917EB00094E41201E84
:10021000A4F10104DFDC484631462A464346BDE8E6
:10022000F09FD2B201E000F8012B491EFBD27047CB
:100230000022F6E710B513460A4604461946FFF7B2
:10024000F0FF204610BD2DE9FE4F804681EA0300F5
:10025000C00F0C46009021F0004123F00045B8EBA0
:100260000200A94105D24046214690461C460B4655
:10027000024623F00040104347D0270DC7F30A0081
:10028000C3F30A510290401A019040286BDAC3F37D
:10029000130040F4801B0098924620B10023D2EB5B
:1002A000030A63EB0B0B01985946C0F1400250461C
:1002B00000F011F906460D4650465946019A00F0E5
:1002C00029F910EB08006141002487EA115284EA01
:1002D000E7731A4340D0009A62B3019A012A4FEAA9
:1002E000075215DC001B61EB02014FF0004202EAED
:1002F0000752CDE90042001C41F5801132462B46E1
:1003000000F060F903B0BDE8F08F40462146F9E700
:10031000001B61EB0201001C41F5801300185B41DA
:100320002018A2F5001747EB030140EAD570B61973
:100330006D4111E06D084FEA360645EAC0754FEA97
:100340000752001B61EB0201001C41F580114908B6
:100350004FEA30000019514132462B4603B0BDE848
:10036000F04F00F020B90098012240000023D0EBAC
:10037000020263EBE073009821464FEAE074B8EBA9
:10038000000061EB0401E9E783F000435BE781F0E3
:10039000004158E72DE9FE4F81EA030404F00044D0
:1003A00021F0004100944FF0000B23F0004350EA8D
:1003B00001045ED052EA03045BD0C3F30A54C1F3D4
:1003C0000A552C44A4F2F3340194A0FB0254C1F367
:1003D000130141F48011C3F3130343F4801301FBB1
:1003E000024400FB034E840A970A44EA815447EA18
:1003F0008357A4FB076802958D0A05FB07854FEA22
:10040000932C04FB0C542705029D4FEA065847EA3B
:100410001637B5EB08056EEB070C870E920E47EA10
:10042000811742EA8312A7FB0201B6EB0B0164EBD2
:1004300000042B0D43EA0C335E1844EB1C50DA46E3
:100440005146E7FB0201C5F313044FEA0B3343EABD
:1004500014534FEA0432019C43EA0603A4F10C044E
:100460000294009CCDE900B400F0ACF803B0BDE804
:10047000F08F00200146F9E700F0004230F0004024
:100480000AD0C10D01F56071C0F3160042EA0151B6
:10049000C20840071143704700200146704701F031
:1004A000004330B421F0004150EA010206D00A0DA9
:1004B000A2F56072C1F31301002A02DC30BC0020F7
:1004C0007047440F44EAC104C100E01830BC00EB9F
:1004D000C25000F031B8202A04DB203A00FA02F1C1
:1004E000002070479140C2F1200320FA03F3194322
:1004F00090407047202A04DB203A21FA02F00021C4
:10050000704721FA02F3D040C2F120029140084323
:1005100019467047202A06DBCB17203A41FA02F031
:1005200043EAE07306E041FA02F3D040C2F1200250
:1005300091400843194670470029A8BF7047401CE6
:10054000490008BF20F00100704710B4B0FA80FCE9
:1005500000FA0CF050EA010404BF10BC704749B126
:10056000CCF1200421FA04F411FA0CF118BF012196
:1005700021430843A3EB0C01CB1D4FEA00614FEA76
:10058000102042BF002010BC704700EBC350104445
:100590000029A4BF10BC7047401C490008BF20F0D0
:1005A000010010BC704710B5141E73F1000408DA86
:1005B000401C41F1000192185B411A4301D120F027
:1005C000010010BD2DE9F04D92469B4611B1B1FAE4
:1005D00081F202E0B0FA80F220329046FFF77BFF12
:1005E00004460F4640EA0A0041EA0B0153465A46C8
:1005F000084313D0114653EA010019D0C8F1400254
:100600005046FFF777FF05460E465046594642468C
:10061000FFF761FF084305D0012004E0204639467A
:10062000BDE8F08D0020054346EAE0762C433743D1
:100630000A986305E40AA0EB08000022FD0A44EAD8
:1006400047540A3002D500200146E9E70105101998
:100650006941DDE9084500196941BDE8F04DA2E7AF
:10066000064C074D06E0E06840F0010394E80700FF
:1006700098471034AC42F6D3FFF78AFDE024000817
:1006800000250008FEE70000014800F057B8000010
:10069000C800002001681823CAB2103AB2FBF3F276
:1006A000054B6FF30901032A9B5CC36500D9091D43
:1006B0008165084670470000C024000810B5014657
:1006C00000208B698A6A4FF0C07453B1B3F5005FA4
:1006D00015D072B1012A0CD0022A0AD0032A09D1FE
:1006E00004E01AB1012A06D0022A03D1C96AC9015D
:1006F00000D5012010BDC96AA142FAD010BD002A60
:10070000F7D0012AF2D0022AF3D0032AF3D010BD89
:1007100030B50468256825F4802525600468636089
:100720008368402B036803D099600068C26030BDC5
:100730009A600068C16030BD704770472DE9F8438A
:1007400004464FF00009CDF8009063484FF416516D
:10075000A56D0068B0FBF1F72E6894F85C100820D6
:1007600000FA01F131420FD021680A6852070BD517
:100770000A6822F004020A6094F85C108840A860BD
:10078000606D40F00100606594F85C104FF0010866
:1007900008FA01F0304208D021684969090604D5F9
:1007A000A860606D40F00200606594F85C10042061
:1007B0008840304208D021680968890704D5A860BC
:1007C000606D40F00400606594F85C101020884073
:1007D000304218D021680968090714D5A86020683C
:1007E0000168490304D50068000308D5A16C07E03F
:1007F0000168C90503D4016821F008010160216C7A
:1008000009B12046884794F85C1020208840304287
:1008100031D021680968C9062DD5A86094F8350043
:1008200005282068016806D0490347D50068000301
:100830001DD4616C1CE021F0160101602068416943
:1008400021F080014161206C08B9A06C20B12068C2
:10085000016821F00801016094F85C103F20884095
:10086000A86084F8349084F83580216D1FE0E16B36
:1008700009B120468847606D00282BD0606DC00705
:1008800014D0052084F835002068016821F00101AA
:1008900001600098401C0090B84203D820680068AE
:1008A000C007F6D184F8349084F83580E16C0029D3
:1008B00010D001B02046BDE8F04308470168C905E3
:1008C000D5D4016821F01001016084F8349084F8D7
:1008D0003580CCE7BDE8F883300000202DE9F041F9
:1008E000044600F091F906465CB1002584F83450C6
:1008F000022084F835002068016821F001010160C0
:100900000DE00120BDE8F08100F07EF9801B052894
:1009100005D920206065032084F83500F2E72068BF
:100920000068C007F0D12268116820480140D4E96E
:1009300001031843D4E9033633431843636918436A
:10094000A3691843E3691843236A18430843616A9B
:10095000042903D1D4E90B1319430843106020681C
:100960004069666A20F0070130460E4301270428DB
:100970000CD1A06A0643E06A40B12046FFF79EFE14
:1009800020B14020606584F83570BAE72068466180
:100990002046FFF77FFE94F85C203F219140816064
:1009A000656584F835700020ACE700003F8010F0EA
:1009B0002DE9F0410446866D90F8340000250128A9
:1009C0000DD0012084F8340094F835700020012FF8
:1009D00007D084F8340002252846BDE8F0810220C3
:1009E000FBE7022784F8357060652046FFF790FE2C
:1009F00094F85C103F208840B0602068016841F0A6
:100A0000160101602068416941F080014161206C5C
:100A100020B12068016841F0080101602068016888
:100A200041F001010160D7E770B5044600F0ECF831
:100A30000546601C02D004480078044400F0E4F845
:100A4000401BA042FAD370BD240000202DE9F84FCE
:100A5000DFF87CB100224FF001084FF0030A4FF09D
:100A60000F090BF1040E00BF0B6808FA02F42340D3
:100A7000A3426ED14D68022D01D0122D0ED1D508A2
:100A800000EB850CDCF820505607F70E09FA07F644
:100A9000B5430E69BE402E43CCF820600668550071
:100AA0000F790AFA05FC07F0030726EA0C06AF40A7
:100AB000374307604E68012E05D0022E03D0112E59
:100AC00001D0122E0ED18668CF6826EA0C06AF4000
:100AD000374387604668A6430C79C4F300149440FA
:100AE00034434460C6688C6826EA0C06AC40344344
:100AF000C4604C68E40065D5364C256845F48045F3
:100B00002560246822F0030504F480440094324CEC
:100B10002E19D6F8084895072F0F09FA07F5AC43A8
:100B20002E4DA84201D1002524E02D4DA84201D12F
:100B300001251FE02B4DA84201D102251AE02A4DC4
:100B4000A84201D1032515E0284DA84202D1042571
:100B500010E037E0264DA84201D105250AE0254DD9
:100B6000A84201D1062505E0234DA84201D1072561
:100B700000E00825BD402543C6F80858DBF80040D2
:100B80005D464E689C43F60300D51C432C60DEF89E
:100B9000004075464E689C43B60300D51C432C604C
:100BA0000B4D08352C684E689C43F60200D51C435B
:100BB0002C60074D0C352C684E689C43B60200D55E
:100BC0001C432C60521C102AFFF44EAFBDE8F88F76
:100BD000003C014044380240003001400000024027
:100BE0000004024000080240000C024000100240D5
:100BF0000014024000180240001C02400AB181614A
:100C000070470904FBE70000014880687047000056
:100C10002400002070B504001BD094F83D0000258E
:100C200020B984F83C50204600F034FA242084F89F
:100C30003D002068016821F00101016000F090FB97
:100C40004D4A6168914201D84C4900E04C498842C4
:100C500001D2012070BD4B492368B0FBF1F15E6801
:100C600026F03F060E435E606368934206D94FF458
:100C7000967359434FF47A73B1FBF3F12368491C1F
:100C80001E6A26F03F06314319626168914210D80E
:100C90004900401EB0FBF1F2521CC2F30B02042AC1
:100CA00001D2042022E0B0FBF1F0401CC0F30B00A5
:100CB0001CE0A368F3B301EBC10202EB0116421E74
:100CC000B2FBF6F2521C42F48042120549D093B3B3
:100CD00001EBC10202EB0111401EB0FBF1F0401C20
:100CE000C0F30B0040F4804040F400402168CA6922
:100CF0004CF6FF739A431043C861D4E907010843D7
:100D000021680A6822F0C00210430860D4E9030198
:100D100001432068826848F2FF339A43114381609F
:100D2000D4E9050108432168CA6822F0FF02104394
:100D3000C86001E00EE016E02068016841F00101A2
:100D400001602564202084F83D00256384F83E502E
:100D5000002070BD01EB4106421EB2FBF6F2521CB0
:100D6000B3E70120C2E701EB4101401EB0FBF1F007
:100D7000401CC0F30B00B7E7A086010080841E0072
:100D800000093D0040420F002DE9F84F1F469046F4
:100D90008A460446DDF82890FFF736FF054694F8AA
:100DA0003D00202875D1192301226C492046009569
:100DB00000F0EEFE0028F5D194F83C00012868D040
:100DC000012084F83C0020680168C90703D101684C
:100DD00041F0010101602068016821F400610160B7
:100DE000222084F83D00102084F83E00002626646E
:100DF000C4F824806785608D20855948E0622B46C1
:100E00004A465146204600F0EFFD002878D1208D5B
:100E1000544F68B1012814D002282068016816D008
:100E200041F480610160206841698069009087E039
:100E30002068416981690091016841F40071016095
:100E40007EE02068016821F480610160F0E721F410
:100E5000806101602068016841F40061E2E70328D5
:100E600048D801280AD0022814D04B46002239461F
:100E70002046009500F08CFED8BB27E02A46494664
:100E8000204600F004FFA0BB20680069616A08707A
:100E90004DE061E04B46002239462046009500F0C7
:100EA00077FE30BB2068016841F400710160206862
:100EB0000069616A0870606A401C6062218D491E89
:100EC0002185618D491E618521682EE020680168B9
:100ED00021F48061016020680069616A0870606ABD
:100EE000401C6062208D401E2085608D401E608504
:100EF000D0E705E02A464946204600F0C8FE10B17A
:100F00000120BDE8F88F20680069616A0870606A96
:100F1000401C6062218D491E2185618D491E6185BD
:100F200021684A69D24352070AD409690170606A8C
:100F3000401C6062208D401E2085608D401E6085B3
:100F4000208D00288BD1202084F83D0084F83E605D
:100F500084F83C600020D4E70220D2E702001000B1
:100F60000000FFFF040001002DE9F84F1F469046E6
:100F70008A460446DDF82890FFF746FE054694F8B9
:100F80003D0020287FD119230122404920460095A9
:100F900000F0FEFD002876D194F83C00012872D0C4
:100FA000012084F83C0020680168C90703D101686A
:100FB00041F0010101602068016821F400610160D5
:100FC000212084F83D00102084F83E00002626648D
:100FD000C4F824806785608D20852D48E0622B460B
:100FE0004A465146204600F069FD90B920684169A3
:100FF0008069009036E02A464946204600F07AFE95
:1010000050B1206C042804D12068016841F40071BB
:1010100001600120BDE8F88F606A216800780861EE
:10102000606A401C6062618D491E6185218D491E88
:1010300089B2218522685369DB435B070BD451B128
:1010400000781061606A401C6062608D401E60859F
:10105000208D401E20852A464946204600F072FD1C
:101060000028CED1208D0028C5D154F83D0B016851
:1010700041F400710160202004F81E09E6776677CC
:101080000020C7E7FFE70220C4E7000002001000CD
:101090000000FFFF10B586B0044614216846FFF734
:1010A000C7F813492068884220D11248016841F0EE
:1010B000020101600068694600F002000590C0204E
:1010C0000090122001900120029003200390042040
:1010D00004900948FFF7BAFC06481030016841F453
:1010E00000110160006800F40010059006B010BD0A
:1010F0000054004030380240000402400248816839
:101100000278114481607047240000200B4810B51C
:10111000016841F400710160016841F4806101607F
:10112000016841F480710160032000F06FF8002035
:1011300000F006F800F024F8002010BD003C02404A
:1011400070B50D4D04464FF47A712878B1FBF0F07C
:101150000A490968B1FBF0F000F0E0FA48B9102C38
:1011600007D200222146501E00F030F800206C60AB
:1011700070BD012070BD0000240000203000002060
:101180000A4808B5016841F480410160006800F434
:10119000804000900548001F016841F080510160C7
:1011A000006800F08050009008BD00004438024004
:1011B000002809DB00F01F02012191404009800056
:1011C00000F1E020C0F8001170470000F0B40E4BB1
:1011D0001B680C46C3F30223C3F10705042D00D995
:1011E0000425191D072901D2002300E0DB1E01267A
:1011F00006FA05F1491E214099409E40761E164090
:101200003143F0BC01F035B80CED00E0064900F0C8
:10121000070208684FF6FF03184040EA0220034A1D
:1012200010430860704700000CED00E00000FA0574
:101230002DE9F0470E46050065D0DFF81481D8F897
:101240000000F7B200F00F00B04207D288F800703B
:10125000D8F8000000F00F00B04254D128683D4C8F
:10126000810712D5400703D5206840F4E050206084
:101270002878000703D5206840F46040206020688B
:10128000A96820F0F000084320602878C0072DD01E
:10129000304968680839012812D0022813D0032881
:1012A00011D00968890700292DDA216821F003018E
:1012B00001432160FFF7A8FC814641F2883A0EE025
:1012C00009688903EFE709688901ECE7FFF79CFCEF
:1012D000A0EB0901514502D90320BDE8F087206841
:1012E000696800F00C00B0EB810FEFD1D8F8001066
:1012F000404601F00F01B14207D90770006800F0C5
:101300000F00B04201D00120E7E72878400705D55B
:101310002068E96820F4E05008432060287800073E
:1013200006D52068296920F4604040EAC1002060A9
:1013300000F036F82168084AC1F30311515CC84037
:10134000064908600020FFF7FBFE0020C5E700000B
:10135000003C024008380240C82400083000002049
:101360000448054900680968044AC1F38221515CB8
:10137000C84070473000002008380240D8240008D8
:101380000448054900680968044AC1F34231515CC8
:10139000C84070473000002008380240D8240008B8
:1013A000154810B5006810F00C02144813D0411015
:1013B000042A0FD0082A0ED10F4C241F226823685C
:1013C00002F03F025B0207D52068C0F38810A0FB43
:1013D000010106E0084610BD2168C1F38811A1FB98
:1013E00000010023FEF7ECFE2168C1F30141491C16
:1013F0004900B0FBF1F010BD083802400024F400B1
:101400002DE9F84F050076D02878DFF8F8B2BE4C09
:10141000C00749D0DBF800105846C1F3810101290B
:1014200008D00068C0F3810002280AD1201D00689E
:10143000400206D52068800336D568680028E2D0CF
:1014400032E06868B0F5803F10D0B0F5A02F20687A
:1014500010D020F480302060206820F480202060AC
:101460006868A0B1FFF7D0FB06460CE0206840F4A6
:101470008030F4E740F480202060F7E7FFF7C4FBFA
:10148000801B642873D820688003F7D50CE0FFF731
:10149000BBFB064605E000BFFFF7B6FB801B6428D8
:1014A000F0D820688003F7D42878DFF860828007BE
:1014B0004FF000093ED5DBF80010584611F00C0F34
:1014C00009D00068C0F3810002280BD18D48001FAD
:1014D0000068400206D42068800715D5E868012816
:1014E00009D111E0E868B8B10120C8F80000FFF7A1
:1014F0008BFB064605E002E1FFF786FB801B022816
:10150000C0D820688007F7D52068296920F0F80046
:1015100040EAC10020600DE0C8F80090FFF774FBBE
:10152000064604E0FFF770FB801B02281FD82068E6
:101530008007F7D42878000722D5724E744869696D
:101540006C3671B101210160FFF75EFB074604E0D4
:10155000FFF75AFBC01B022809D830688007F7D56F
:101560000EE0C0F80090FFF74FFB074605E083E070
:10157000FFF74AFBC01B02287ED830688007F7D4EB
:101580002878400768D5DFF87CA100270AF1380ADF
:10159000DAF80000C0000BD4DAF8001041F08051F6
:1015A000CAF80010DAF80000012700F0805000901F
:1015B000584E3068C00510D4306840F480703060F8
:1015C000FFF722FB009005E0FFF71EFB0099401A91
:1015D000022851D83068C005F6D54A4EA86868364A
:1015E00001280FD00528306810D020F001003060AD
:1015F000306820F004003060A868B8B1FFF704FB41
:1016000000900FE0306840F00100F4E740F0040083
:101610003060F7E7FFF7F8FA0099411A41F2883095
:10162000814264D830688007F4D50EE0FFF7ECFA09
:10163000009007E0FFF7E8FA0099411A41F288307C
:10164000814254D830688007F4D42FB1DAF8001002
:1016500021F08051CAF80010A869C0B3DBF800106F
:10166000C1F3810102294AD00228484607D0C8F8B0
:101670006000FFF7C9FA00E039E005463AE0474666
:10168000C8F86000FFF7C0FA064604E0FFF7BCFAAE
:10169000801B02282BD820688001F7D4D5E90701E8
:1016A0000843A96A1C4A490802EB01416A6A41EAF7
:1016B0008211084395F82C1040EA01611148001F7F
:1016C000016001203866FFF79FFA054605E014E047
:1016D000FFF79AFA401B022809D820688001F7D545
:1016E0000BE000BFFFF790FA401B022802D903204D
:1016F000BDE8F88F20688001F4D40020F8E70120CD
:10170000F6E7000008380240003802400000474277
:10171000800E4742007000400000FFFF10B5401EE1
:10172000B0F1807F01D3012010BD4FF0E024606153
:101730000F21601700F09DFD0020A06107202061AF
:10174000002010BD704770B5040004D094F8390033
:10175000002510B106E0012070BD84F83850204605
:1017600000F022F8242084F839002068C16821F4B0
:101770000051C160204600F0F3FB2068016921F4AC
:10178000904101612068416921F02A01416120688E
:10179000C16841F40051C160E563202084F839003C
:1017A00084F83A00002070BD70B586B0064614215A
:1017B0006846FEF73DFD20493068884239D11F4810
:1017C0000025016841F400310160006800F4003038
:1017D00005901A481038016841F001010160006865
:1017E000694600F0010005900C2000900220019055
:1017F0000120029003200390072004901048FFF777
:1018000025F9114C0F4820604FF00060C4E9010534
:101810004014C4E9035080106561C4E90650256294
:1018200020466562FFF75AF808B1FEF786FF746339
:10183000A66306B070BD000000440040403802407E
:101840000000024088600240C8000020F8B504464D
:1018500090F83A0020283CD1C1B3BAB394F83800CC
:10186000012836D0012084F83800A162A285002525
:10187000E563222084F83A00636B1748D863636BF2
:1018800016481864636B1648D864606B1346056588
:101890000846666B216802463046091DFFF788F846
:1018A000206801684168009184F83850C16841F4AB
:1018B0008071C1602068416941F001014161206887
:1018C000416941F0400141610020F8BDFFE701207E
:1018D000FBE70220F9E70000EB1E0008271F0008C5
:1018E000A11E00080448A0F11C0102790A7090EDC5
:1018F000000A81ED060A70471C00002070472DE9A0
:10190000F843044690F839001F4616460D46202835
:1019100050D1A5B19EB194F8380001284AD00120D9
:1019200084F838004FF00008C4F83C80212084F887
:101930003900FFF769F9A6848146E68426E0012094
:10194000BDE8F883E08C401EE084A0684B46B0F50B
:10195000805F4FF000024FF080012046009703D0D7
:1019600000F054FCE8B90DE000F050FCC8B928883C
:101970002168C0F308004860206908B16D1C05E0CB
:10198000AD1C03E0216815F8010B4860E08C0028CD
:10199000D8D14B46002240212046009700F036FC6B
:1019A00008B10320CCE7202084F8390084F838807F
:1019B0000020C5E70220C3E7FEE701684A69D24379
:1019C00052050FD46FF480624A61002140F8301F45
:1019D000202242738173026942F0040202610173A2
:1019E00001207047002070472DE9F84F0446C06A77
:1019F0001E4692460D4621680A6842F480620A60DB
:101A0000082807D0012805D010F5803F02D0206BB0
:101A1000112804D12068016841F4807101604FF001
:101A200001185346002241462046009600F0B0F8C7
:101A3000F0BB206908F10109B0F5804F0FD00620F6
:101A4000216800EAD51747F0F00008613346524696
:101A500008F10701204600F0CFF848BB03E0E8B2E8
:101A600040F001001BE02168E8B2086133465246AD
:101A70004946204600F0C0F8D0B920684169816924
:101A80000091016841F48071016053460022414693
:101A90002046009600F07CF850B947F0F10021682C
:101AA0000861334652464946204600F0A5F800E05A
:101AB00001E0002800D00120BDE8F88FF8B5044609
:101AC000C06A1E460D461746082807D0012805D0D3
:101AD00010F5803F02D0206B122804D120680168E5
:101AE00041F480710160134600224FF0011120463D
:101AF000009600F04DF808BB2069B0F5804F0ED07D
:101B00000620216800EAD51040F0F0000861334655
:101B10003A460B49204600F06FF878B902E005F02C
:101B2000FE0000E0E8B221680861054933463A4604
:101B3000891F204600F060F8002800D00120F8BD81
:101B40000800010070B516460D4604460DE020461B
:101B5000FFF733FF08B1012070BD681C05D0FFF707
:101B600053F8801BA84207D835B120684069C043AC
:101B70004007ECD4002070BD002044F8300F202135
:101B80006173A073216941F0200121612073E2E7B4
:101B90002DE9F0471E4690460D460446C1F307471F
:101BA000DDF8209008E0701C06D0FFF72DF8A0EBC0
:101BB0000900B0420FD876B12068012F18D0806993
:101BC00025EA00000004000C14D000214145EAD0B1
:101BD0000020BDE8F087002044F8300F2021617319
:101BE000A073216941F02001216120730120F0E7F9
:101BF0004069E5E70121E9E72DE9F0479A4691467A
:101C00000E46044600254FF02008C1F3074725E0A3
:101C100020684069C043400514D42068016841F43D
:101C20000071016021686FF480604861256384F869
:101C30003D8084F83E50206C40F00400206484F81D
:101C40003C501FE0B9F1FF3F08D0FEF7DDFFA0EBED
:101C50000A0149450CD8B9F1000F09D02068012FBD
:101C600013D0806926EA00000004000C0BD0CFE7F7
:101C700044F8305F84F80D80A573206940F020009F
:101C8000206125730120BDE8F0874069EAE72DE96E
:101C9000F041002590460E460446202717E0406993
:101CA000C043C0060CD454F8301B6FF010004861DC
:101CB00044F810596777A577206A2062257717E0E6
:101CC000FEF7A2FFA0EB0800B04208D83EB12068A2
:101CD0004169C9434906E2D40020BDE8F08144F8D7
:101CE000305F6773A573206940F020002061257381
:101CF0000120F2E770B516460D4604460DE0204679
:101D0000FFF75BFE08B1012070BD681C05D0FEF72F
:101D10007BFF801BA84207D835B120684069C043CB
:101D20000006ECD4002070BD002044F8300F2021C4
:101D30006173A073216941F0200121612073E2E702
:101D400030B587B014216846FEF772FA15480024B2
:101D5000016841F080010160016801F08001059196
:101D6000016841F001010160016801F00101059184
:101D7000016841F00201016000680B4D00F00200B3
:101D80000122059011462846FEF738FF0220012166
:101D900003900091CDE9011469462846FEF756FEEE
:101DA00007B030BD3038024000000240FEE7704707
:101DB0007047704710B5FFF7A1F902488188491CA8
:101DC000818010BD0000002030B593B030216846FE
:101DD000FEF72EFA14210CA8FEF72AFA194800255E
:101DE000016841F080510160006800F0805011905E
:101DF0001548016841F4804101600068022400F444
:101E00008040119001200090000401908001CDE9F4
:101E10000640082008904FF4A870CDE9090404207A
:101E20000B906846FFF7ECFA0CA90F2081E831000F
:101E30004FF4A0500F90109005210CA8FFF7F8F96F
:101E400013B030BD403802400070004010480168B7
:101E500041F4700101600F48016841F00101016027
:101E60000C4A00210832116002680B4B1A400260D4
:101E7000031D0A4A1A60026822F4802202600548A3
:101E80000C30016002495806803908607047000034
:101E900088ED00E000380240FFFFF6FE103000241D
:101EA00070B5846B2068406994F83910C0F3C01095
:101EB0000025212904D118B1E584204600F046F818
:101EC0002068406994F83A10C0F38010222904D1A8
:101ED00018B1E585204600F02BF8E06B40F01000CB
:101EE000E0632046FFF72EFC70BD10B50146806B05
:101EF00009680968C90513D40021C1850168CA6849
:101F000022F48072CA6001684A6922F001024A61C3
:101F100001684A6922F040024A61202180F83A10A3
:101F2000FFF7E0FC10BD10B5806BFFF7E7FC10BDBC
:101F30000168CA6822F49072CA6001684A6922F096
:101F400001024A61202180F83A1070470168CA688E
:101F500022F0C002CA60202180F8391070470000CA
:101F60002DE9F041044600680169E26821F440511E
:101F7000114301612169A068E26908436169114365
:101F800022680843D16849F20C6399430143D16048
:101F900020684169A26921F4407111434161E269FD
:101FA0006425B2F5004F9748974922684FF03208F0
:101FB0003FD08A4201D082427CD1FFF7E1F900EBA9
:101FC000C00101EB001061688900B0FBF1F6FFF77A
:101FD000D7F900EBC00101EB001061688900B0FB8C
:101FE000F1F0B0FBF5F06FF01801484306EB80010B
:101FF00008EB0110B0FBF5F000F0F006FFF7C0F9B8
:1020000000EBC00101EB001061688900B0FBF1F04A
:10201000B0FBF5F006EB0016FFF7B2F900EBC001DC
:1020200001EB001061688900B0FBF1F7FFF7A8F938
:10203000D2E08A4201D082423DD1FFF7A1F900EB04
:10204000C00101EB001061684900B0FBF1F0B0FB8A
:10205000F5F00601FFF794F900EBC00101EB001069
:1020600061684900B0FBF1F7FFF78AF900EBC001A6
:1020700001EB001061684900B0FBF1F0B0FBF5F036
:102080006FF01801484307EB800108EBC100B0FB7B
:10209000F5F000F0F80006EB4006FFF771F900EBF1
:1020A000C00101EB001061684900B0FBF1F7FFF7D8
:1020B00067F93CE055E0FFF753F900EBC00101EB95
:1020C000001061684900B0FBF1F0B0FBF5F00601CB
:1020D000FFF746F900EBC00101EB00106168490011
:1020E000B0FBF1F7FFF73CF900EBC00101EB00108A
:1020F00061684900B0FBF1F0B0FBF5F06FF018013A
:10210000484307EB800108EBC100B0FBF5F000F09D
:10211000F80006EB4006FFF723F900EBC00101EBE6
:10212000001061684900B0FBF1F7FFF719F900EB07
:10213000C00101EB001061684900B0FBF1F0B0FB99
:10214000F5F06FF01801484307EB800108EBC10080
:10215000B0FBF5F000F00700216830448860BDE86E
:10216000F081FFF7FDF800EBC00101EB00106168A2
:102170008900B0FBF1F6FFF7F3F800EBC00101EBCB
:10218000001061688900B0FBF1F0B0FBF5F06FF072
:102190001801484306EB800108EB0110B0FBF5F095
:1021A00000F0F006FFF7DCF800EBC00101EB0010D7
:1021B00061688900B0FBF1F0B0FBF5F006EB0016AA
:1021C000FFF7CEF800EBC00101EB00106168890059
:1021D000B0FBF1F7FFF7C4F800EBC00101EB001012
:1021E00061688900B0FBF1F0B0FBF5F06FF0180109
:1021F000484307EB800108EB0110B0FBF5F000F05D
:102200000F00A9E700140140001001402DE9F04142
:10221000984617460E460446069D1DE0681C1BD0D6
:102220002DB1FEF7F1FCA0EB0800A84214D92068FC
:10223000C16821F4D071C1602068416921F00101B9
:102240004161202084F8390084F83A00002084F8A5
:1022500038000320BDE8F0812068006836EA0000FD
:1022600004D00020B842D9D00020F3E70120F9E7DC
:10227000FEE70907090E002804DB00F1E02080F8E2
:102280000014704700F00F0000F1E02080F8141DEA
:10229000704702E008C8121F08C1002AFAD170472F
:1022A0007047002001E001C1121F002AFBD17047D6
:1022B00008B5FEF72BFFFFF787FDFFF741FD6F48DD
:1022C0000024016841F4001101600068224600F416
:1022D0000010009021461020FEF778FF1020FEF736
:1022E00067FF6848664901606749C0E901144FF417
:1022F0008041C0E9034144618461C4610462FEF726
:1023000089FC60486149543001604FF4E131C0E913
:1023100001140C21C460C0E904418461C461FFF769
:1023200012FA5B49E3200870491CE52008705948FF
:102330004FF47A710068B0FBF1F0401EB0F1807F7D
:1023400009D24FF0E0214861534AF02082F8140D81
:102350008C61072008614E494A4805221B315430E0
:10236000FFF774FA4A4DDFF834914FF466786D1E2A
:10237000A88840456ED3AC800A260123444A8021B8
:1023800040480096FEF7F0FD2820FEF74DFB404A3E
:102390000323521D80213B480096FEF7F5FC3C4F7D
:1023A0007F1D7878397800F0FA0040EA012000EECD
:1023B000100AB8EE400A10EE100AFEF75DF89FED25
:1023C000381B53EC112BFDF7E5FF9FED371B53EC4A
:1023D000112BFDF7DFFF9FED361B53EC112BFDF7A3
:1023E000D3FFFEF75CF8286101233A1F80212548BE
:1023F0000096FEF7B9FD2820FEF716FB0323FA1C12
:10240000802120480096FEF7BFFCF81CDFED2A0A69
:102410004178027801F0FA0343EA022000EE100A44
:102420009FED261AB81DB8EE400A60EE200AB1EE04
:10243000080A10EE810A85ED050A3B7803707B7867
:1024400043708270C17001460E480A230422543042
:10245000FFF755FA2878222808D195ED040AD5ED22
:10246000060AB4EEE00AF1EE10FA01DD012200E006
:10247000002201214846FEF7C1FB79E730380240CF
:102480000054004034000020A086010000440040B9
:1024900001000020300000200FE000E000000240BA
:1024A000D7A3703D0AF76540000000000000F03E31
:1024B000CDCCCCCCCC6C47400000FA420000803739
:1024C00000061016000610160000000000000000B4
:1024D00001020304060708090000000001020304CA
:1024E00000250008000000203400000092220008AF
:1024F0003425000834000020F4040000A222000863
:1025000000000000000000000000000000000000CB
:1025100000000000000000000000000000000000BB
:10252000000000000100000010000000000000009A
:042530000024F4008F
:040000050800018965
:00000001FF
